:020000040800F2
:1000000000000220A9160008F9160008F9160008D9
:10001000F9160008F9160008F9160008000000009B
:10002000000000000000000000000000F9160008B9
:10003000F916000800000000F91600082311000856
:10004000F9160008F9160008F9160008F916000854
:10005000F9160008F9160008191200081F12000806
:10006000251200082B12000831120008F9160008AA
:10007000F9160008F9160008F9160008F916000824
:10008000F9160008F9160008F9160008F916000814
:10009000F9160008F9160008F916000837120008CA
:1000A00059100008710F00086D100008950F000826
:1000B000A90F0008BD0F0008D10F0008F9160008AD
:1000C000F9160008F9160008F9160008F9160008D4
:1000D000F916000839150008511500086D150008BB
:1000E0004D120008F9160008F916000881100008E2
:1000F000211000089510000845100008F9160008A6
:10010000F9160008F9160008E50F0008F9160008AE
:1001100089150008A1150008F90F00080D10000846
:10012000F9160008F9160008F9160008F916000873
:10013000F9160008F9160008F9160008F916000863
:10014000F9160008F9160008F9160008F916000853
:10015000F9160008F9160008F9160008B915000884
:10016000F9160008F9160008F9160008F916000833
:10017000F9160008F9160008F9160008000000003A
:08018000F9160008F916000849
:1001880053B94AB9002908BF00281CBF4FF0FF31F6
:100198004FF0FF3000F00CB8ADF1080C6DE904CE5B
:1001A80001F060FDDDF804E0DDE9022304B07047EA
:1001B800704700BF10B5054C237833B9044B13B111
:1001C8000448AFF300800123237010BD64000020B1
:1001D80000000000301F000808B5034B1BB103499D
:1001E8000348AFF3008008BD00000000680000204D
:1001F800301F0008704770477047000038B50E4B35
:100208001A784FF47A73B3FBF2F30C4A0546106878
:10021800B0FBF3F000F0A6F8044658B90F2D09D842
:10022800024629464FF0FF3000F04AF8044B2046BA
:100238001D6038BD0120FCE70000002010000020F0
:100248000400002008B50B4B1A6842F400721A60CB
:100258001A6842F480621A601A6842F480721A605E
:10026800032000F01BF80020FFF7C8FFFFF7C4FFCA
:10027800002008BD003C0240034A044B11681B786B
:100288000B441360704700BF80000020000000206E
:10029800014B1868704700BF800000200749CA68F2
:1002A80022F4E0620302120403F4E063120C134325
:1002B80043F0BF6343F40033CB60704700ED00E0C8
:1002C800164B30B5DC68C4F30224C4F10703251DBE
:1002D800042B28BF0423062D4FF0FF358CBF033CA9
:1002E800002405FA03F321EA0303A54022EA0502E4
:1002F800A340002843EA0203ACBF00F16040084A6B
:100308004FEA0313B8BF00F00F00DBB2AABF00F535
:100318006140135480F8003330BD00BF00ED00E0A9
:1003280014ED00E0002807DB044A4109012300F02E
:100338001F00834042F82130704700BF00E100E011
:1003480000280CDB4309064900F01F002033012276
:10035800824041F82320BFF34F8FBFF36F8F704760
:1003680000E100E00138B0F1807F0BD24FF0E023CC
:10037800054A5861F02182F823100020072298616D
:100388001A6170470120704700ED00E0002808DB83
:100398004309044900F01F0001226033824041F8FC
:1003A8002320704700E100E0704708B5FFF7FCFF25
:1003B80008BD704710B5044650B1437903F0FF02F9
:1003C80013B90271FFF7F5FF01236371002010BD17
:1003D8000120FCE770B50446866DFFF759FF94F8D5
:1003E8003530022B054606D08023636501200023A3
:1003F80084F8343070BD23681A6822F016021A6037
:100408005A6922F080025A61226C0AB9A26C1AB1A8
:100418001A6822F008021A601A6822F001021A60AB
:100428002368186810F0010007D1E26D3F2393405C
:10043800B360012384F83530D9E7FFF729FF401B63
:100448000528EDD920230320636584F83500CEE71D
:1004580090F83530022B03D0802343650120704784
:100468000268052380F83530136823F00103136010
:1004780000207047044A5169014208B502D0506112
:1004880000F0B0FE08BD00BF003C01402DE9F3417B
:10049800044640B30368DE0710D423689D075BD485
:1004A8002368190700F19D8023685A0700F1BD8071
:1004B800A369002B40F0248100202CE08D4B9A6822
:1004C80002F00C02042A07D09A6802F00C02082AEB
:1004D8000BD15B68590208D5864B1B689A03DCD59B
:1004E8006368002BD9D1012015E06368814DB3F50D
:1004F800803F13D12B6843F480332B60FFF7C8FE8D
:100508007C4E054633689B03C7D4FFF7C1FE401BEA
:100518006428F7D9032002B0BDE8F081B3F5A02F15
:1005280004D12B6843F480232B60E3E72A6822F484
:1005380080322A602A6822F480222A60002BDDD1CA
:10054800FFF7A6FE06462B689F03A6D5FFF7A0FE79
:10055800801B6428F7D9DDE7664B9A6812F00C0F08
:1005680007D09A6802F00C02082A11D15B685D0274
:100578000ED4604A1368990702D5E368012BB2D1FB
:100588001368216923F0F80343EAC103136087E77E
:10059800E268594BB2B101221A60FFF779FE554D56
:1005A80006462B689B0707D52B68226923F0F803BA
:1005B80043EAC2032B6073E7FFF76AFE801B022839
:1005C800EFD9A7E71A60FFF763FE4A4E054633687E
:1005D8009F077FF565AFFFF75BFE401B0228F6D942
:1005E80098E76269444B82B10122C3F8802EFFF775
:1005F8004FFE404E0546736F9B073FF555AFFFF71B
:1006080047FE401B0228F6D984E7C3F8802EFFF77F
:100618003FFE384E0546736F9F077FF545AFFFF7DE
:1006280037FE401B0228F6D974E7324B1A6C12F0D9
:10063800805228D101921A6C42F080521A641B6CC5
:1006480003F080530193019B01272C4D2B68D8059B
:100658001BD5A368274D012B27D12B6F43F001032E
:100668002B67FFF715FE234E054641F28838336F96
:100678009A0739D5002F3FF41BAF1E4A136C23F09D
:100688008053136414E70027DFE72B6843F4807373
:100698002B60FFF7FDFD06462B68D905D9D4FFF777
:1006A800F7FD801B0228F7D934E7052B04D12B6FFF
:1006B80043F004032B67D0E72A6F22F001022A6770
:1006C8002A6F22F004022A67002BCAD1FFF7E0FD47
:1006D80041F2883806462B6F9B07CBD5FFF7D8FD2C
:1006E800801B4045F7D915E7FFF7D2FD401B404571
:1006F800BDD90FE7003802400000474200700040B3
:10070800374DAA6802F00C02082A3ED0022B354B5E
:100718004FF000021A662BD1FFF7BAFD06462B6888
:1007280099011FD4D4E907321343626A43EA82135A
:10073800E26A43EA0263A26A5208013A43EA0243C0
:100748006B60284B264D01221A66FFF7A1FD04466F
:100758002B689A013FF5B0AEFFF79AFD001B0228FF
:10076800F6D9D7E6FFF794FD801B0228D7D9D1E642
:10077800FFF78EFD04462B689B017FF59DAEFFF7C2
:1007880087FD001B0228F6D9C4E6012B3FF4ABAE67
:100798006B68E26903F4800191427FF4A4AE216A98
:1007A80003F03F028A427FF49EAE616A47F6C07248
:1007B8001A40B2EB811F7FF496AEA26A520803F486
:1007C8004031013AB1EB024F7FF48DAEE26A03F09B
:1007D8007063B3EB026F14BF012000209BE600BFDB
:1007E8000038024000004742134908B58B6803F0FF
:1007F8000C03042B1CD0082B1CD14A684B68496891
:1008080013F4800314BF0D480D48C1F3881118BFB5
:10081800002302F03F02A1FB0001FFF7B1FC064BE9
:100828005B68C3F3014301335B00B0FBF3F008BD21
:100838000248FCE70248FAE70038024000127A0052
:100848000024F4002DE9F0410D46044610B90120BA
:10085800BDE8F081434B1A6802F007028A4228D3A8
:1008680021688F072DD4C80740D43E4B1A6802F080
:100878000702AA4265D8226851076BD4130707D527
:10088800394A2169936823F4604343EAC1039360BA
:10089800FFF7AAFF344B354A9B68C3F30313D35CB5
:1008A800D840334B1860334B1868FFF7A7FC00207B
:1008B800CEE7CAB21A701B6803F007038B42C6D191
:1008C800CEE7294B11F0040F1EBF9A6842F4E0529C
:1008D8009A600E0742BF9A6842F460429A609A682A
:1008E800A06822F0F00202439A60BCE762681E4BDF
:1008F800012A1CD11B6813F4003FA8D01A4EB36814
:1009080023F003031343B360FFF7C2FC41F28838B6
:100918000746B368626803F00C03B3EB820FA4D0F8
:10092800FFF7B6FCC01B4045F3D9032090E7911EA2
:1009380001291B6802D813F0007FDEE713F0020FCD
:10094800DBE7EAB21A701B6803F00703AB427FF4D7
:100958007EAF90E70449E0688B6823F4E0530343D3
:100968008B608BE7003C024000380240481F0008BB
:10097800100000200400002070477047036870B51D
:10098800DD681E69B10704460DD5AA070BD56FF0BF
:1009980002021A61012202779B699B0769D000F065
:1009A800B7FB00232377710710D56A070ED5236894
:1009B8006FF004021A61022222779B6913F4407FC8
:1009C80020465CD000F0A4FB0023237733070FD523
:1009D80028070DD523686FF008021A6104222277D0
:1009E800DB699907204650D000F092FB002323775B
:1009F800F20610D5EB060ED523686FF010021A61C7
:100A080008222277DB6913F4407F204643D000F0A8
:100A18007FFB00232377F00708D5E90706D523686D
:100A28006FF001021A61204600F04FFB320608D52C
:100A38002B0606D523686FF080021A61204600F065
:100A480032F8700608D5690606D523686FF04002AB
:100A58001A612046FFF791FFB20622D5AB0620D5D2
:100A680023686FF0200220461A61BDE8704000F04C
:100A780019B800F04BFB2046FFF77EFF91E700F026
:100A880045FB2046FFF778FF9EE700F03FFB204636
:100A9800FFF772FFAAE700F039FB2046FFF76CFF6B
:100AA800B7E770BD70477047026802F10C0353E85E
:100AB800003F23F490730C3242E8003102680029A9
:100AC800F2D102F1140353E8003F23F0010302F1CD
:100AD800140C4CE800310029F3D1036B012B0BD126
:100AE80002F10C0353E8003F23F0100302F10C0C51
:100AF8004CE800310029F3D1202380F8423000234C
:100B08000363704790F84130202B10D189B182B12E
:100B1800C28401628284016800232122436480F830
:100B28004120CA6842F08002CA6018467047022015
:100B380070470120704708B5806B0023C385C384C4
:100B480000F0B8FC08BD704790F84230222B07B57A
:100B580042D181680268836AB1F5805F3FD101693B
:100B680000293FD15268C2F3080223F8022B83629E
:100B7800C38D013B9BB2C385002B2DD10268D16880
:100B880021F02001D160D16821F48071D1605169D0
:100B980021F001015161202280F842204363026B59
:100BA800012A026828D1036302F10C0353E8003FCD
:100BB80023F0100302F10C0C4CE800310029F3D1AA
:100BC8001368DB0605D501911368019353680193F7
:100BD800019B818DFFF7B7FF03B05DF804FB39B9BE
:100BE800016929B95268D2B21A70836A0133BEE723
:100BF800526802F07F02F7E700F056FCECE70000CD
:100C080003681A6873B51607D9685D69044608D180
:100C1800960668D58D0666D502B0BDE87040FFF728
:100C280093BF05F0010001F4907505435BD0D6072A
:100C380005D5CD0542BF636C43F0010363645307D8
:100C480004D518B1636C43F002036364960704D5B6
:100C580018B1636C43F004036364150707D501F00A
:100C6800200303431EBF636C43F008036364636C93
:100C7800002B32D0920604D58B0602D52046FFF70A
:100C880063FF26687369626C03F0400302F0080290
:100C980053EA0205204622D0FFF706FF73695E0675
:100CA80018D5226802F1140353E8003F23F04003EB
:100CB800143242E800310029F3D1E06B50B1744B93
:100CC8000365FFF7C5FB40B1E06B036D02B0BDE8FB
:100CD80070401847204600F0EDFB02B070BD00F0F0
:100CE800E9FB6564F9E7206B012840F09580D5069B
:100CF80040F19280C80640F18F80002201921A6864
:100D080001925A680192019A5A6952064ED5E16BCE
:100D18000A68526892B2002ADFD0A08D9042DCD9CE
:100D2800E285CA69B2F5807F36D003F10C0252E839
:100D3800002F22F4807203F10C0040E80021002902
:100D4800F3D103F1140252E8002F22F0010203F15B
:100D5800140040E800210029F3D103F1140252E8FD
:100D6800002F22F0400203F1140040E8002100297E
:100D7800F3D1202284F84220216303F10C0252E8C7
:100D8800002F22F0100203F10C0040E80021002996
:100D9800F3D1E06BFFF71EFB02236363E38DA18DA4
:100DA800C91A89B22046FFF7CEFE96E7E28DE08D9C
:100DB800A18D80B292B200288FD0891A89B20029F9
:100DC8008BD003F10C0252E8002F22F4907203F149
:100DD8000C0545E800200028F3D103F1140252E87D
:100DE800002F22F0010203F1140545E80020002835
:100DF800F3D1202284F84220206303F10C0252E848
:100E0800002F22F0100203F10C0545E8002000280D
:100E1800F3D102236363C5E7160628D50D0626D548
:100E280094F84120212A7FF458AFA168226AB1F5CD
:100E3800805F17D12169A9B932F8021BC1F30801F3
:100E480059602262E28C013A92B2E284002A7FF46D
:100E580044AFDA6822F08002DA60DA6842F04002D1
:100E6800DA603AE7511C216212785A60EAE75006C4
:100E78007FF533AF4A067FF530AFDA6822F04002DB
:100E8800DA60202384F84130204600F010FB24E784
:100E98003F0B000890F84030012B11D00268242342
:100EA80080F84130D36823F00C0343F00803D36083
:100EB800202380F84130002380F8403018467047DE
:100EC8000220704790F84030012B11D0026824238B
:100ED80080F84130D36823F00C0343F00403D36057
:100EE800202380F84130002380F8403018467047AE
:100EF8000220704790F8412090F842001043704754
:100F0800C2850023828502694364222380F8423027
:100F1800816203681AB1DA6842F48072DA605A6949
:100F280042F001025A61DA6842F02002DA600020D9
:100F3800704770B490F84260202E06D141B13AB1A2
:100F48000024046370BCFFF7DBBF022070BC70474D
:100F58000120FBE7836810B5044613B1032201465C
:100F68009847204610BD000010B5074C206810B106
:100F78000430FFF703FD606A20B1BDE8104004307B
:100F8800FFF7FCBC10BD00BF84000020034B1868AD
:100F980010B10430FFF7F2BC704700BF8400002096
:100FA800034B586810B10430FFF7E8BC704700BF26
:100FB80084000020034B986810B10430FFF7DEBCB2
:100FC800704700BF84000020034BD86810B104307C
:100FD800FFF7D4BC704700BF84000020034B18699A
:100FE80010B10430FFF7CABC704700BF840000206E
:100FF800034B586910B10430FFF7C0BC704700BFFD
:1010080084000020034B986910B10430FFF7B6BC88
:10101800704700BF8400002010B5074CE06910B18C
:101028000430FFF7ABFC206B20B1BDE81040043062
:10103800FFF7A4BC10BD00BF84000020034BD86993
:1010480010B10430FFF79ABC704700BF840000203D
:10105800034B186A10B10430FFF790BC704700BF0B
:1010680084000020034B986A10B10430FFF786BC57
:10107800704700BF84000020034BD86A10B10430C9
:10108800FFF77CBC704700BF84000020034B586BFF
:1010980010B10430FFF772BC704700BF8400002015
:1010A800826810B50AB900F03BFFBDE81040C3687C
:1010B800184708B500B9FEE700F094F90068836E98
:1010C80013B16030FFF7ECFF08BDFFF7F2BF10B5B2
:1010D80000B9FEE7037F013B072B10D8DFE803F0D8
:1010E80004140F100F0F0F12012400F07BF9006891
:1010F800063400EB041083680BB1FFF7D1FF10BD75
:101108000324F2E70424F0E70224EEE7FFF7DFBF49
:10111800FFF7DDBFFFF7BCB8704708B5FFF7ACF8BD
:10112800FFF743F9FFF7F8FF08BD704784B0114B8C
:1011380000220192196C41F080511964196C01F078
:101148008051019101990292596C41F4804159648E
:10115800596C01F480410291029903921A6B42F48E
:1011680080521A631B6B03F480530393039B04B0F0
:10117800704700BF003802400C4BD3F8FC20D20166
:101188005EBFD3F8FC2042F08072C3F8FC20084B05
:1011980000225A601A6842F001021A6000BF00BFBC
:1011A80000BF5868B0FA80F04009704700ED00E0D1
:1011B800001000E008B5FFF7B9FFFFF7DDFFFFF704
:1011C80041F8FFF7B2FF00F00BFABDE8084001480C
:1011D800FFF7F0B8080000200023C0E90033C0E999
:1011E800023370470023012803F101020AD11422B7
:1011F800DBB25343054A181D1044816829B11A44CB
:101208001369184740081346EDE77047BC000020F3
:101218000120FFF72FB90220FFF72CB90420FFF7B0
:1012280029B90820FFF726B91020FFF723B938B5E8
:1012380005242025A8B2FFF71DF9013C4FEA450512
:10124800F8D138BD38B506244FF48065A8B2FFF749
:1012580011F9013C4FEA4505F8D138BD344A10462A
:1012680008B5062300F8043BFFF7B6FF072302F191
:1012780018001375FFF7B0FF082302F12C0082F85D
:101288002830FFF7A9FF092302F1400082F83C301B
:10129800FFF7A2FF0A2302F1540082F85030172109
:1012A800FFF79AFF02F1680082F86410FFF794FFD5
:1012B80002F17C0082F87810FFF78EFF02F19000AF
:1012C80082F88C10FFF788FF02F1A40082F8A010C2
:1012D800FFF782FF02F1B80082F8B4102821FFF767
:1012E8007BFF02F1CC0082F8C810FFF775FF02F10E
:1012F800E00082F8DC10FFF76FFF02F1F40082F8DB
:10130800F010FFF769FF02F5847082F80411FFF707
:1013180063FF02F58E7082F81811FFF75DFFBDE8D4
:10132800084002F5987082F82C11FFF755BF00BFEE
:10133800BC00002038B5054CA4F5A075143C201D50
:10134800FFF708FEAC42F9D138BD00BFFC01002010
:101358000B685A1C01D100207047834201D14868AC
:1013680070470C31F4E7431C01D0FFF7F1BF0020B0
:1013780070474B6813B94FF0FF307047834201D173
:10138800086870470C31F4E708B1FFF7F2BF4FF077
:10139800FF3070471049D1F8883043F47003C1F822
:1013A80088300E4B1A6842F001021A6000229A60D7
:1013B8001A6822F0847222F480321A60084A5A604D
:1013C8001A6822F480221A604FF43F02DA604FF064
:1013D80000638B60704700BF00ED00E000380240FA
:1013E800103000240438704708B5074B90F8652082
:1013F80053F82200FFF77EFD00F02200A0F122033F
:101408005842584108BD00BFFC01002008B5074BF1
:1014180090F8652053F82200FFF76CFD00F02100DA
:10142800A0F121035842584108BD00BFFC0100202B
:1014380038B515460446B8B1016590F96400FEF761
:101448007FFFE36EB4F8761094F8650013FA81F123
:10145800064BAAB253F82000FFF754FB94F9640036
:10146800BDE83840FEF75EBF38BD00BFFC01002074
:1014780048B1836D013306D190F86520024B53F8CB
:101488002200FFF707BD7047FC01002048B1836DBB
:10149800013306D190F86520024B53F82200FFF77C
:1014A80011BD7047FC010020836C04381847C36CD9
:1014B8000438184730B5044650F804391D6815F04B
:1014C800010585B012D0002200921A6800925B686C
:1014D8000093009BFFF788FF40BB012204F16201E3
:1014E800204605B0BDE83040FFF723BD196811F06C
:1014F800020106D001951A6801925B680193019B6D
:10150800E8E71A6812F0040206D002911A680292FB
:101518005B680293029BDDE719680907DAD5039235
:101528001A6803925B680393039BD3E705B030BD49
:1015380008B52520FEF72AFF024B1868BDE80840C9
:10154800FFF75EBBFC01002008B52620FEF71EFF52
:10155800034B586818B1BDE80840FFF751BB08BDF8
:10156800FC01002008B52720FEF710FF034B986800
:1015780018B1BDE80840FFF743BB08BDFC010020D7
:1015880008B53420FEF702FF024BD868BDE80840D2
:10159800FFF736BBFC01002008B53520FEF7F6FE44
:1015A800024B1869BDE80840FFF72ABBFC01002080
:1015B80008B54720FEF7EAFE024B5869BDE8084027
:1015C800FFF71EBBFC010020FEE70000024B1622BD
:1015D8001A604FF0FF307047AC04002001207047BC
:1015E80010B594B01422002109A800F0B5FA14220D
:1015F800002103A800F0B0FA00231E4A0193116CE1
:1016080041F080511164126C02F080520192019AEB
:10161800194A0293116841F480411160126802244A
:1016280002F480420820CDE90E430292A823CDE9B6
:101638001003029A089401211022072308A8CDE973
:101648000B1212941393FEF721FF00B1FEE70F234C
:10165800CDE9033405904FF4A0524FF4805305218F
:1016680003A8CDE90623FFF7EDF800B1FEE714B0B3
:1016780010BD00BF003802400070004008B50320CC
:10168800FEF70CFEBDE8084000F042B808B5AFF31D
:101698000080FEF7AFFDFEF7AEFD00F02BF8FAE78D
:1016A800DFF834D0FFF776FE0C480D490D4A0023C9
:1016B80002E0D458C4500433C4188C42F9D30A4AFF
:1016C8000A4C002301E013600432A242FBD300F06D
:1016D8004BFAFFF7DBFF70470000022000000020F4
:1016E800640000204C22000864000020B0040020A0
:1016F800FEE7000008B5044B2BB1044800F00AF8D7
:1017080008B1AFF3008008BD0000000014020020FB
:10171800FFF750BDB0F85031B0F84C219BB264339C
:101728009B1A6422B3FBF2F002FB10307047B0F84A
:101738005031B0F84C219BB293421ABFD0F84431D3
:10174800985C4FF0FF30704790F84E31B0F8520176
:10175800C0B2834227BFC3F16303C018C01A00F1A7
:10176800FF30704707B503688DF807105B680122E2
:101778000DF10701984703B05DF804FBB0F8762037
:10178800816F38B511FA82F26424B2FBF4F104FBDC
:10179800112292B2A0F87620B0F87610B0F8722034
:1017A80089B28A4216D0B0F87650B0F87610ADB249
:1017B8002244521B89B2611A92FBF4F504FB1522EC
:1017C8008A4228BF0A4682670349FFF731FE4FF075
:1017D800FF3038BD0020FCE7851700082DE9F843E5
:1017E800036804469B688846154698470123237476
:1017F800D4F83431B4F84E6101338146C6F1640639
:1018080009D194F8583133B1002384F8583104F1E0
:10181800DC00FFF72DFE236820469B6898470028C8
:10182800F9D02F46BE4228D34F4526D8B4F84E31BA
:10183800D4F84801DA19642A184433D83A4641469C
:1018480000F0B6F93E46B4F84E3164223B4404F148
:10185800DC07B3FBF2F102FB1133A4F84E31384632
:10186800FFF7D4FD30B91649C4F8546132463846FA
:10187800FFF7DEFD2846BDE8F8834E45236828BFFC
:101888004E46324641465B682046984723682046C4
:101898009B689847BF1BB044B4F84E618146C6F1B7
:1018A8006406BFE7C3F164063246414600F080F99A
:1018B800D4F84801BA1B08EB060100F079F9C2E731
:1018C80085170008C0F83831009BC0F83C319142B8
:1018D80008BF4FF0FF3100F11103C0E94C21C0F8F7
:1018E800443100F175020023A0F85031C0E95223B9
:1018F800A0F852317047037C70B504460D46A3B179
:10190800FEF7C6FC0646B4F84E21B4F852319BB235
:101918009A420AD0002DF8D0FEF7BAFC801B854207
:10192800F1D8B4F85231A4F84E3170BD0021FFF758
:10193800E2BF0000CBB2512B08D80E4A52F8233030
:1019480001F4E0611943C0F83411704701F0C00296
:10195800C02A0CD1CF2B0AD8074B01F03F0201F463
:10196800E06153F82220034B53F82230EAE74FF0A6
:10197800FF31E8E7B820000878200008CBB2512BE7
:1019880008D80E4A52F8233001F4E0611943C0F830
:101998003011704701F0C002C02A0CD1CF2B0AD8F1
:1019A800074B01F03F0201F4E06153F82220034B9A
:1019B80053F82230EAE74FF0FF31E8E7B820000893
:1019C8007820000873B54FF47A7316460022C0E9F0
:1019D80001231D4B03604FF0FF33C0F834311B4B1C
:1019E800984204460D4615D1C121FFF7A3FFC02137
:1019F800FFF7C4FF012E4FF0FF3308BFC4F834319E
:101A080000932046D4E94C214FF0FF33FFF75AFFEB
:101A180002B070BD0E4B0F491A680F4B53F82200E5
:101A2800FFF7A1FC854202D1C1212046DDE70B4921
:101A38002846FFF7A9FC0749C4F834012846FFF7F0
:101A4800A3FCC4F83001D5E70822000814020020DE
:101A580078200008E81F0008B8200008581F000870
:101A6800D0F83431013310B504460ED10368DB6871
:101A7800984794F8583143B9012384F8583104F150
:101A8800DC00BDE81040FFF701BD10BD10B50446ED
:101A9800FFF7E6FFB4F85021B4F84C3192B29A42FD
:101AA8000DD0D4F84421D05C0133DBB26422B3FBFF
:101AB800F2F102FB1133DBB2A4F84C3110BD4FF048
:101AC800FF30FBE7024903480022FFF77BBF00BF56
:101AD800004C00401402002010B5044600F03AF80B
:101AE800E060236820465B699847002808DA00F020
:101AF80031F8E368C01AA3689842F2D34FF0FF3078
:101B080010BDF8B507460D468E180C46B44201D1F3
:101B1800601BF8BD3846FFF7DFFF031EF8DB04F84B
:101B2800013BF3E72DE9F0410746884616461D4676
:101B380073B100243846FFF7CFFF031E05DB43458A
:101B480003D033550134A542F4D12046BDE8F081D5
:101B58001C46FAE7FFF7DEBA02440346934200D177
:101B6800704703F8011BF9E770B50D4D0D4C641B68
:101B7800A4100026A64209D10B4D0C4C00F0D4F954
:101B8800641BA4100026A64205D170BD55F8043B7D
:101B980098470136EEE755F8043B98470136F2E7D7
:101BA80034220008342200083422000844220008A5
:101BB8000A44914200F1FF3300D1704710B511F883
:101BC800014B03F8014F9142F9D110BD08B5062029
:101BD80000F02CF80120FFF7F7FC1F2938B505465F
:101BE8000C4604D9162303604FF0FF3038BDC26B92
:101BF80012B152F821304BB9284600F031F822468C
:101C080001462846BDE8384000F018B8012B0AD034
:101C1800591C03D1162303600120E7E7002142F88D
:101C28002410204698470020E0E70000024B0146B8
:101C38001868FFF7D2BF00BF1400002038B5074D61
:101C480000230446084611462B60FFF7BFFC431CDF
:101C580002D12B6803B1236038BD00BFAC0400205B
:101C6800FFF7BCBC2DE9F047089D0E4604460F4619
:101C7800002B4AD194468C45B2FA82F260D942B11F
:101C8800C2F12003974020FA03F30CFA02FC1F4329
:101C980094404FEA1C4E1FFA8CF6B7FBFEF1230C5A
:101CA8000EFB117743EA074301FB06F098420AD975
:101CB8001CEB030301F1FF3780F01581984240F2D5
:101CC8001281023963441B1AA4B2B3FBFEF00EFB67
:101CD800103344EA034400FB06F6A6420AD91CEB7B
:101CE800040400F1FF3380F00081A64240F2FD8039
:101CF8006444023840EA0140A41B00211DB1D440CD
:101D08000023C5E90043BDE8F0878B4205D90DB132
:101D1800C5E9000100210846F5E7B3FA83F1002977
:101D280046D1B34202D3824200F2F580841A66EBB0
:101D3800030201201746002DE5D0C5E90047E2E778
:101D4800002A40F09380A1EB0C034FEA1C471FFACE
:101D58008CFE0121B3FBF7F607FB1630230C43EA90
:101D680000430EFB06F0984208D91CEB030306F16A
:101D7800FF3802D2984200F2D08046461B1AA4B21D
:101D8800B3FBF7F007FB103344EA03440EFB00FEF5
:101D9800A64508D91CEB040400F1FF3302D2A6457E
:101DA80000F2B6801846A4EB0E0440EA0640A5E708
:101DB800C1F120078B4022FA07FC4CEA030C06FA13
:101DC80001FE20FA07F426FA07F344EA0E0400FAA3
:101DD80001F84FEA1C404FEA1449B3FBF0FE1FFA22
:101DE8008CF600FB1E3349EA03430EFB06F99945BE
:101DF80002FA01F20BD91CEB03030EF1FF3A80F053
:101E08008580994540F28280AEF1020E6344A3EBCF
:101E18000909A4B2B9FBF0F300FB139944EA094499
:101E280003FB06F6A64208D91CEB040403F1FF30B5
:101E380068D2A64266D9023B644443EA0E40A41B1A
:101E4800A0FB02E6B4427346B14652D34FD05DB10F
:101E5800B8EB030264EB090404FA07F722FA01F36A
:101E68001F43CC40C5E9007400214CE7C2F12001B2
:101E780020FA01F30CFA02FC26FA01F196403343EA
:101E88004FEA1C471FFA8CFEB1FBF7F007FB101650
:101E9800190C41EA064100FB0EF68E4204FA02F4E0
:101EA80008D91CEB010100F1FF382DD28E422BD945
:101EB80002386144891B9BB2B1FBF7F607FB161188
:101EC80043EA014306FB0EF1994208D91CEB0303D0
:101ED80006F1FF3814D2994212D9023E63445B1AC4
:101EE80046EA004136E73946EDE6184602E7F0458E
:101EF800ADD2BEEB020366EB0C060138B146A6E78D
:101F08004646ECE7034698E74046D3E7D6467EE7E1
:101F18006444023847E708460DE7023E63442DE76C
:101F280008B5FFF753FE0000F8B500BFF8BC08BCC1
:101F38009E467047F8B500BFF8BC08BC9E4670477F
:101F48000000000000000000010203040607080961
:101F580001000000004C00401208000003000000CF
:101F680000440040120700000A0000000010014071
:101F780012070000170000000010014012070000BF
:101F88001B00000000480040120700002700000066
:101F980000140140120800002B000000004C004013
:101FA800120800002B010000004800401207000042
:101FB8003200000000500040120800003600000007
:101FC80000440040120700003900000000480040AB
:101FD80012070000FFFFFFFF0000000000000000E4
:101FE80000000000004C0040120800000200000041
:101FF80000440040120700000900000000100140E2
:10200800120700001600000000100140120700002F
:102018001A000000004800401207000026000000D7
:1020280000140140120800002A000000004C004083
:10203800120800002A0100000048004012070000B2
:102048002C0000000050004012080000350000007D
:10205800004400401207000038000000004800401B
:1020680012070000FFFFFFFF000000000000000053
:102078000000000001000000020000000300000052
:102088000400000005000000060000000700000032
:1020980010000000110000002000000021000000D6
:1020A800220000002300000024000000250000009A
:1020B8000000000001000000020000000300000012
:1020C80004000000050000000600000007000000F2
:1020D80008000000090000000A0000000B000000D2
:1020E8000C0000000D0000000E0000000F000000B2
:1020F8001000000011000000120000001300000092
:102108001400000015000000160000001700000071
:1021180018000000190000001A0000001B00000051
:102128001C0000001D0000001E0000001F00000031
:102138002000000021000000220000002300000011
:1021480024000000250000002600000027000000F1
:1021580028000000290000002A0000002B000000D1
:102168002C0000002D0000002E0000002F000000B1
:102178003000000031000000320000003300000091
:102188003400000035000000360000003700000071
:1021980038000000390000003A0000003B00000051
:1021A8003C0000003D0000003E0000003F00000031
:1021B8004000000041000000420000004300000011
:1021C80044000000450000004600000047000000F1
:1021D80048000000490000004A0000004B000000D1
:1021E8004C0000004D0000004E0000004F000000B1
:1021F80070000000710000000000000000000000F6
:102208006D170008E5170008511700083519000870
:102218001D170008951A0008371700080B1B00083F
:042228002D1B000862
:08222C0040FAFF7F01000000F1
:1022340085160008E101000865120008CD1A00089F
:08224400BD0100083D13000874
:10224C0001000000100000000030024000000000FF
:10225C000024F4001800002000000000740300208B
:10226C00DC030020440400200000000000000000FB
:10227C000000000000000000000000000000000052
:10228C000000000000000000000000000000000042
:10229C000000000000000000000000000000000032
:0422AC00000000002E
:04000005080016A930
:00000001FF
