:020000040800F2
:1000000000000220DD030008650300086B03000800
:1000100071030008770300087D030008000000005A
:100020000000000000000000000000008303000842
:1000300091030008000000009F030008AD030008C2
:100040002D0400082D0400082D0400082D040008CC
:100050002D0400082D0400082D0400082D040008BC
:100060002D0400082D0400082D0400082D040008AC
:100070002D0400082D0400082D0400082D0400089C
:100080002D0400082D0400082D04000800000000C5
:100090000000000000000000000000002D04000827
:1000A0002D0400082D0400082D0400082D0400086C
:1000B0002D0400082D0400082D0400082D0400085C
:1000C0002D0400082D0400082D0400082D0400084C
:1000D0002D0400082D0400082D0400080000000075
:1000E0002D0400082D0400082D0400080000000065
:1000F0000000000000000000000000002D040008C7
:10010000000000002D0400082D0400082D04000844
:1001100000000000000000000000000000000000DF
:100120002D0400082D0400082D0400082D040008EB
:100130002D04000800000000000000000000000086
:100140000000000000000000000000002D04000876
:100150002D0400082D0400082D0400082D040008BB
:100160002D0400082D04000800000000000000001D
:10017000000000000000000000000000000000007F
:10018000000000002D040008000000000000000036
:080190002D0400082D040008F5
:1001980010B5054C237833B9044B13B10448AFF3B9
:1001A80000800123237010BD04000020000000001F
:1001B8000005000808B5034B1BB103490348AFF31A
:1001C800008008BD000000000800002000050008AD
:1001D80080B483B000AF78607B68B3F1006F05D35B
:1001E8007B681B4A934201D200232AE07B68194AA4
:1001F800934201D2012324E07B68174A934201D23B
:1002080002231EE07B68154A934201D8032318E0B5
:100218007B68134A934201D8042312E07B68114A91
:10022800934201D805230CE07B680F4A934201D81A
:10023800062306E07B680D4A934201D8072300E0B5
:10024800002318460C37BD465DF8047B704700BF95
:10025800004000080080000800C00008FFFF0008F8
:10026800FFFF0108FFFF0308FFFF0508FFFF07085E
:1002780080B400AF074B1B69002B05DA054B064A13
:100288005A60044B054A5A6000BFBD465DF8047BBE
:10029800704700BF003C024023016745AB89EFCDA2
:1002A80080B400AF054B1B69044A43F00043136157
:1002B80000BFBD465DF8047B704700BF003C0240AC
:1002C80080B584B000AF78607868FFF781FFF86088
:1002D80000BF1A4BDB6803F48033002BF9D1FFF71A
:1002E800C7FF164B1B69154A23F0F8031361134B1C
:1002F8001A69FB68DB00114913430B610F4B1B693B
:100308000E4A43F0020313610C4B1B690B4A43F47A
:100318008033136100BF094BDB6803F48033002B83
:10032800F9D1064B1B69054A23F002031361FFF755
:10033800B7FF00BF1037BD4680BD00BF003C02407C
:1003480080B500AF0448FFF7BBFF4FF47A7000F0A8
:100358008BF80023184680BD00C0000880B400AFA9
:10036800FEE780B400AFFEE780B400AFFEE780B4DC
:1003780000AFFEE780B400AFFEE780B400AF00BF77
:10038800BD465DF8047B704780B400AF00BFBD4632
:100398005DF8047B704780B400AF00BFBD465DF8D0
:1003A800047B704780B500AF00F03EF800BF80BD09
:1003B80080B400AF064BD3F88830054A43F4700385
:1003C800C2F8883000BFBD465DF8047B704700BFA7
:1003D80000ED00E0DFF834D00D480E490E4A002346
:1003E80002E0D458C4500433C4188C42F9D30B4AE1
:1003F8000B4C002301E013600432A242FBD3FFF749
:10040800D7FF00F055F8FFF79BFF70470000022068
:10041800000000200400002020050008040000203F
:1004280024000020FEE7000080B400AF064B1B78D4
:100438001A46064B1B681344044A136000BFBD46A6
:100448005DF8047B704700BF0000002020000020FA
:1004580080B400AF034B1B681846BD465DF8047BAB
:10046800704700BF2000002080B584B000AF7860DE
:10047800FFF7EEFFB8607B68FB60FB68B3F1FF3FF6
:1004880005D00A4B1B781A46FB681344FB6000BF73
:10049800FFF7DEFF0246BB68D31AFA689A42F7D81C
:1004A80000BF00BF1037BD4680BD00BF0000002060
:1004B80070B50D4D0D4C641BA4100026A64209D141
:1004C8000B4D0C4C00F018F8641BA4100026A64233
:1004D80005D170BD55F8043B98470136EEE755F84D
:1004E800043B98470136F2E718050008180500088C
:1004F800180500081C050008F8B500BFF8BC08BCC2
:100508009E467047F8B500BFF8BC08BC9E467047C9
:04051800BD01000819
:04051C009901000839
:0405200001000000D6
:04000005080003DD0F
:00000001FF
